{
    "_format": "hh-sol-artifact-1",
    "contractName": "ExternalContract",
    "sourceName": "contracts/ExternalContract.sol",
    "abi": [
        {
            "inputs": [],
            "stateMutability": "payable",
            "type": "constructor"
        },
        {
            "anonymous": false,
            "inputs": [
                {
                    "indexed": false,
                    "internalType": "uint256",
                    "name": "amount",
                    "type": "uint256"
                },
                {
                    "indexed": false,
                    "internalType": "uint256",
                    "name": "when",
                    "type": "uint256"
                }
            ],
            "name": "Withdrawal",
            "type": "event"
        },
        {
            "inputs": [],
            "name": "owner",
            "outputs": [
                {
                    "internalType": "address payable",
                    "name": "",
                    "type": "address"
                }
            ],
            "stateMutability": "view",
            "type": "function"
        },
        {
            "inputs": [
                {
                    "internalType": "uint256",
                    "name": "_value",
                    "type": "uint256"
                }
            ],
            "name": "setValue",
            "outputs": [],
            "stateMutability": "payable",
            "type": "function"
        },
        {
            "inputs": [],
            "name": "storedValue",
            "outputs": [
                {
                    "internalType": "uint256",
                    "name": "",
                    "type": "uint256"
                }
            ],
            "stateMutability": "view",
            "type": "function"
        },
        {
            "inputs": [],
            "name": "unlockTime",
            "outputs": [
                {
                    "internalType": "uint256",
                    "name": "",
                    "type": "uint256"
                }
            ],
            "stateMutability": "view",
            "type": "function"
        },
        {
            "inputs": [
                {
                    "internalType": "address payable",
                    "name": "_user",
                    "type": "address"
                },
                {
                    "internalType": "uint256",
                    "name": "_amount",
                    "type": "uint256"
                }
            ],
            "name": "withdraw",
            "outputs": [],
            "stateMutability": "nonpayable",
            "type": "function"
        },
        {
            "stateMutability": "payable",
            "type": "receive"
        }
    ],
    "bytecode": "0x608060405233600160006101000a81548173ffffffffffffffffffffffffffffffffffffffff021916908373ffffffffffffffffffffffffffffffffffffffff160217905550610337806100546000396000f3fe60806040526004361061004e5760003560e01c8063251c1aa31461005a57806355241077146100855780636d619daa146100a15780638da5cb5b146100cc578063f3fef3a3146100f757610055565b3661005557005b600080fd5b34801561006657600080fd5b5061006f610120565b60405161007c91906101c0565b60405180910390f35b61009f600480360381019061009a919061020c565b610126565b005b3480156100ad57600080fd5b506100b6610130565b6040516100c391906101c0565b60405180910390f35b3480156100d857600080fd5b506100e1610136565b6040516100ee919061027a565b60405180910390f35b34801561010357600080fd5b5061011e600480360381019061011991906102c1565b61015c565b005b60005481565b8060058190555050565b60055481565b600160009054906101000a900473ffffffffffffffffffffffffffffffffffffffff1681565b8173ffffffffffffffffffffffffffffffffffffffff166108fc829081150290604051600060405180830381858888f193505050501580156101a2573d6000803e3d6000fd5b505050565b6000819050919050565b6101ba816101a7565b82525050565b60006020820190506101d560008301846101b1565b92915050565b600080fd5b6101e9816101a7565b81146101f457600080fd5b50565b600081359050610206816101e0565b92915050565b600060208284031215610222576102216101db565b5b6000610230848285016101f7565b91505092915050565b600073ffffffffffffffffffffffffffffffffffffffff82169050919050565b600061026482610239565b9050919050565b61027481610259565b82525050565b600060208201905061028f600083018461026b565b92915050565b61029e81610259565b81146102a957600080fd5b50565b6000813590506102bb81610295565b92915050565b600080604083850312156102d8576102d76101db565b5b60006102e6858286016102ac565b92505060206102f7858286016101f7565b915050925092905056fea26469706673582212200aae68803804dca85b4bee06779dfb2723df7a66d7b01aaae6045dc0fd5a4ad364736f6c63430008180033",
    "linkReferences": {},
    "deployedLinkReferences": {}
}