{
  "_format": "hh-sol-artifact-1",
  "contractName": "MultiSigWallet",
  "sourceName": "contracts/MultiSigWallet.sol",
  "abi": [
    {
      "inputs": [
        {
          "internalType": "address[]",
          "name": "_approvers",
          "type": "address[]"
        },
        {
          "internalType": "uint256",
          "name": "_quorum",
          "type": "uint256"
        },
        {
          "internalType": "string",
          "name": "_name",
          "type": "string"
        }
      ],
      "stateMutability": "nonpayable",
      "type": "constructor"
    },
    {
      "anonymous": false,
      "inputs": [
        {
          "indexed": true,
          "internalType": "uint256",
          "name": "id",
          "type": "uint256"
        },
        {
          "indexed": true,
          "internalType": "address",
          "name": "approver",
          "type": "address"
        }
      ],
      "name": "TransactionApproved",
      "type": "event"
    },
    {
      "anonymous": false,
      "inputs": [
        {
          "indexed": true,
          "internalType": "uint256",
          "name": "id",
          "type": "uint256"
        },
        {
          "indexed": true,
          "internalType": "address",
          "name": "to",
          "type": "address"
        },
        {
          "indexed": false,
          "internalType": "bytes",
          "name": "data",
          "type": "bytes"
        }
      ],
      "name": "TransactionCreated",
      "type": "event"
    },
    {
      "anonymous": false,
      "inputs": [
        {
          "indexed": true,
          "internalType": "uint256",
          "name": "id",
          "type": "uint256"
        },
        {
          "indexed": true,
          "internalType": "address",
          "name": "to",
          "type": "address"
        },
        {
          "indexed": false,
          "internalType": "bytes",
          "name": "data",
          "type": "bytes"
        }
      ],
      "name": "TransactionExecuted",
      "type": "event"
    },
    {
      "anonymous": false,
      "inputs": [
        {
          "indexed": true,
          "internalType": "uint256",
          "name": "id",
          "type": "uint256"
        },
        {
          "indexed": true,
          "internalType": "address",
          "name": "approver",
          "type": "address"
        }
      ],
      "name": "TransferApproved",
      "type": "event"
    },
    {
      "anonymous": false,
      "inputs": [
        {
          "indexed": false,
          "internalType": "uint256",
          "name": "id",
          "type": "uint256"
        },
        {
          "indexed": false,
          "internalType": "uint256",
          "name": "amount",
          "type": "uint256"
        },
        {
          "indexed": true,
          "internalType": "address",
          "name": "to",
          "type": "address"
        }
      ],
      "name": "TransferCreated",
      "type": "event"
    },
    {
      "anonymous": false,
      "inputs": [
        {
          "indexed": true,
          "internalType": "uint256",
          "name": "id",
          "type": "uint256"
        },
        {
          "indexed": false,
          "internalType": "uint256",
          "name": "amount",
          "type": "uint256"
        },
        {
          "indexed": true,
          "internalType": "address",
          "name": "to",
          "type": "address"
        }
      ],
      "name": "TransferSent",
      "type": "event"
    },
    {
      "inputs": [
        {
          "internalType": "address",
          "name": "",
          "type": "address"
        },
        {
          "internalType": "uint256",
          "name": "",
          "type": "uint256"
        }
      ],
      "name": "approvals",
      "outputs": [
        {
          "internalType": "bool",
          "name": "",
          "type": "bool"
        }
      ],
      "stateMutability": "view",
      "type": "function"
    },
    {
      "inputs": [
        {
          "internalType": "uint256",
          "name": "id",
          "type": "uint256"
        }
      ],
      "name": "approveTransaction",
      "outputs": [],
      "stateMutability": "nonpayable",
      "type": "function"
    },
    {
      "inputs": [
        {
          "internalType": "uint256",
          "name": "id",
          "type": "uint256"
        }
      ],
      "name": "approveTransfer",
      "outputs": [],
      "stateMutability": "nonpayable",
      "type": "function"
    },
    {
      "inputs": [
        {
          "internalType": "uint256",
          "name": "",
          "type": "uint256"
        }
      ],
      "name": "approvers",
      "outputs": [
        {
          "internalType": "address",
          "name": "",
          "type": "address"
        }
      ],
      "stateMutability": "view",
      "type": "function"
    },
    {
      "inputs": [
        {
          "internalType": "address",
          "name": "to",
          "type": "address"
        },
        {
          "internalType": "bytes",
          "name": "data",
          "type": "bytes"
        }
      ],
      "name": "createTransaction",
      "outputs": [],
      "stateMutability": "nonpayable",
      "type": "function"
    },
    {
      "inputs": [
        {
          "internalType": "uint256",
          "name": "amount",
          "type": "uint256"
        },
        {
          "internalType": "address payable",
          "name": "to",
          "type": "address"
        }
      ],
      "name": "createTransfer",
      "outputs": [],
      "stateMutability": "nonpayable",
      "type": "function"
    },
    {
      "inputs": [],
      "name": "getApprovers",
      "outputs": [
        {
          "internalType": "address[]",
          "name": "",
          "type": "address[]"
        }
      ],
      "stateMutability": "view",
      "type": "function"
    },
    {
      "inputs": [
        {
          "internalType": "uint256",
          "name": "id",
          "type": "uint256"
        }
      ],
      "name": "getTransaction",
      "outputs": [
        {
          "components": [
            {
              "internalType": "uint256",
              "name": "id",
              "type": "uint256"
            },
            {
              "internalType": "address",
              "name": "to",
              "type": "address"
            },
            {
              "internalType": "bytes",
              "name": "data",
              "type": "bytes"
            },
            {
              "internalType": "uint256",
              "name": "approvals",
              "type": "uint256"
            },
            {
              "internalType": "bool",
              "name": "executed",
              "type": "bool"
            }
          ],
          "internalType": "struct MultiSigWallet.Transaction",
          "name": "",
          "type": "tuple"
        }
      ],
      "stateMutability": "view",
      "type": "function"
    },
    {
      "inputs": [],
      "name": "getTransfers",
      "outputs": [
        {
          "components": [
            {
              "internalType": "uint256",
              "name": "id",
              "type": "uint256"
            },
            {
              "internalType": "uint256",
              "name": "amount",
              "type": "uint256"
            },
            {
              "internalType": "address payable",
              "name": "to",
              "type": "address"
            },
            {
              "internalType": "uint256",
              "name": "approvals",
              "type": "uint256"
            },
            {
              "internalType": "bool",
              "name": "sent",
              "type": "bool"
            }
          ],
          "internalType": "struct MultiSigWallet.Transfer[]",
          "name": "",
          "type": "tuple[]"
        }
      ],
      "stateMutability": "view",
      "type": "function"
    },
    {
      "inputs": [],
      "name": "name",
      "outputs": [
        {
          "internalType": "string",
          "name": "",
          "type": "string"
        }
      ],
      "stateMutability": "view",
      "type": "function"
    },
    {
      "inputs": [],
      "name": "quorum",
      "outputs": [
        {
          "internalType": "uint256",
          "name": "",
          "type": "uint256"
        }
      ],
      "stateMutability": "view",
      "type": "function"
    },
    {
      "inputs": [],
      "name": "transactionCount",
      "outputs": [
        {
          "internalType": "uint256",
          "name": "",
          "type": "uint256"
        }
      ],
      "stateMutability": "view",
      "type": "function"
    },
    {
      "inputs": [
        {
          "internalType": "address",
          "name": "",
          "type": "address"
        },
        {
          "internalType": "uint256",
          "name": "",
          "type": "uint256"
        }
      ],
      "name": "transactionapprovals",
      "outputs": [
        {
          "internalType": "bool",
          "name": "",
          "type": "bool"
        }
      ],
      "stateMutability": "view",
      "type": "function"
    },
    {
      "inputs": [
        {
          "internalType": "uint256",
          "name": "",
          "type": "uint256"
        }
      ],
      "name": "transfers",
      "outputs": [
        {
          "internalType": "uint256",
          "name": "id",
          "type": "uint256"
        },
        {
          "internalType": "uint256",
          "name": "amount",
          "type": "uint256"
        },
        {
          "internalType": "address payable",
          "name": "to",
          "type": "address"
        },
        {
          "internalType": "uint256",
          "name": "approvals",
          "type": "uint256"
        },
        {
          "internalType": "bool",
          "name": "sent",
          "type": "bool"
        }
      ],
      "stateMutability": "view",
      "type": "function"
    },
    {
      "stateMutability": "payable",
      "type": "receive"
    }
  ],
  "bytecode": "0x608060405260016005553480156200001657600080fd5b5060405162002e0738038062002e0783398181016040528101906200003c919062000433565b82600090805190602001906200005492919062000077565b508160018190555080600290816200006d91906200070e565b50505050620007f5565b828054828255906000526020600020908101928215620000f3579160200282015b82811115620000f25782518260006101000a81548173ffffffffffffffffffffffffffffffffffffffff021916908373ffffffffffffffffffffffffffffffffffffffff1602179055509160200191906001019062000098565b5b50905062000102919062000106565b5090565b5b808211156200012157600081600090555060010162000107565b5090565b6000604051905090565b600080fd5b600080fd5b600080fd5b6000601f19601f8301169050919050565b7f4e487b7100000000000000000000000000000000000000000000000000000000600052604160045260246000fd5b62000189826200013e565b810181811067ffffffffffffffff82111715620001ab57620001aa6200014f565b5b80604052505050565b6000620001c062000125565b9050620001ce82826200017e565b919050565b600067ffffffffffffffff821115620001f157620001f06200014f565b5b602082029050602081019050919050565b600080fd5b600073ffffffffffffffffffffffffffffffffffffffff82169050919050565b6000620002348262000207565b9050919050565b620002468162000227565b81146200025257600080fd5b50565b60008151905062000266816200023b565b92915050565b6000620002836200027d84620001d3565b620001b4565b90508083825260208201905060208402830185811115620002a957620002a862000202565b5b835b81811015620002d65780620002c1888262000255565b845260208401935050602081019050620002ab565b5050509392505050565b600082601f830112620002f857620002f762000139565b5b81516200030a8482602086016200026c565b91505092915050565b6000819050919050565b620003288162000313565b81146200033457600080fd5b50565b60008151905062000348816200031d565b92915050565b600080fd5b600067ffffffffffffffff8211156200037157620003706200014f565b5b6200037c826200013e565b9050602081019050919050565b60005b83811015620003a95780820151818401526020810190506200038c565b60008484015250505050565b6000620003cc620003c68462000353565b620001b4565b905082815260208101848484011115620003eb57620003ea6200034e565b5b620003f884828562000389565b509392505050565b600082601f83011262000418576200041762000139565b5b81516200042a848260208601620003b5565b91505092915050565b6000806000606084860312156200044f576200044e6200012f565b5b600084015167ffffffffffffffff81111562000470576200046f62000134565b5b6200047e86828701620002e0565b9350506020620004918682870162000337565b925050604084015167ffffffffffffffff811115620004b557620004b462000134565b5b620004c38682870162000400565b9150509250925092565b600081519050919050565b7f4e487b7100000000000000000000000000000000000000000000000000000000600052602260045260246000fd5b600060028204905060018216806200052057607f821691505b602082108103620005365762000535620004d8565b5b50919050565b60008190508160005260206000209050919050565b60006020601f8301049050919050565b600082821b905092915050565b600060088302620005a07fffffffffffffffffffffffffffffffffffffffffffffffffffffffffffffffff8262000561565b620005ac868362000561565b95508019841693508086168417925050509392505050565b6000819050919050565b6000620005ef620005e9620005e38462000313565b620005c4565b62000313565b9050919050565b6000819050919050565b6200060b83620005ce565b620006236200061a82620005f6565b8484546200056e565b825550505050565b600090565b6200063a6200062b565b6200064781848462000600565b505050565b5b818110156200066f576200066360008262000630565b6001810190506200064d565b5050565b601f821115620006be5762000688816200053c565b620006938462000551565b81016020851015620006a3578190505b620006bb620006b28562000551565b8301826200064c565b50505b505050565b600082821c905092915050565b6000620006e360001984600802620006c3565b1980831691505092915050565b6000620006fe8383620006d0565b9150826002028217905092915050565b6200071982620004cd565b67ffffffffffffffff8111156200073557620007346200014f565b5b62000741825462000507565b6200074e82828562000673565b600060209050601f83116001811462000786576000841562000771578287015190505b6200077d8582620006f0565b865550620007ed565b601f19841662000796866200053c565b60005b82811015620007c05784890151825560018201915060208501945060208101905062000799565b86831015620007e05784890151620007dc601f891682620006d0565b8355505b6001600288020188555050505b505050505050565b61260280620008056000396000f3fe6080604052600436106100e15760003560e01c80634c12fa471161007f578063b77bf60011610059578063b77bf600146102cf578063cacca4a0146102fa578063d3650fb814610323578063ffabc67314610360576100e8565b80634c12fa471461023a5780636cb3e8ef146102635780639377d7111461028e576100e8565b80632f65142c116100bb5780632f65142c1461016c57806333ea3dc81461019757806336434f63146101d457806342dd3c0614610211576100e8565b806306fdde03146100ed5780631703a01814610118578063242232d114610143576100e8565b366100e857005b600080fd5b3480156100f957600080fd5b5061010261039d565b60405161010f91906116c3565b60405180910390f35b34801561012457600080fd5b5061012d61042b565b60405161013a91906116fe565b60405180910390f35b34801561014f57600080fd5b5061016a6004803603810190610165919061174f565b610431565b005b34801561017857600080fd5b506101816108da565b60405161018e91906118fe565b60405180910390f35b3480156101a357600080fd5b506101be60048036038101906101b9919061174f565b6109c8565b6040516101cb9190611a0c565b60405180910390f35b3480156101e057600080fd5b506101fb60048036038101906101f69190611a5a565b610b0c565b6040516102089190611aa9565b60405180910390f35b34801561021d57600080fd5b5061023860048036038101906102339190611b29565b610b3b565b005b34801561024657600080fd5b50610261600480360381019061025c9190611bb5565b610e23565b005b34801561026f57600080fd5b5061027861105d565b6040516102859190611ca4565b60405180910390f35b34801561029a57600080fd5b506102b560048036038101906102b0919061174f565b6110eb565b6040516102c6959493929190611cd5565b60405180910390f35b3480156102db57600080fd5b506102e461115e565b6040516102f191906116fe565b60405180910390f35b34801561030657600080fd5b50610321600480360381019061031c919061174f565b611164565b005b34801561032f57600080fd5b5061034a6004803603810190610345919061174f565b61157e565b6040516103579190611d37565b60405180910390f35b34801561036c57600080fd5b5061038760048036038101906103829190611a5a565b6115bd565b6040516103949190611aa9565b60405180910390f35b600280546103aa90611d81565b80601f01602080910402602001604051908101604052809291908181526020018280546103d690611d81565b80156104235780601f106103f857610100808354040283529160200191610423565b820191906000526020600020905b81548152906001019060200180831161040657829003601f168201915b505050505081565b60015481565b6000805b6000805490508110156104c5573373ffffffffffffffffffffffffffffffffffffffff166000828154811061046d5761046c611db2565b5b9060005260206000200160009054906101000a900473ffffffffffffffffffffffffffffffffffffffff1673ffffffffffffffffffffffffffffffffffffffff16036104b857600191505b8080600101915050610435565b50600115158115151461050d576040517f08c379a000000000000000000000000000000000000000000000000000000000815260040161050490611e2d565b60405180910390fd5b600015156004600084815260200190815260200160002060040160009054906101000a900460ff16151514610577576040517f08c379a000000000000000000000000000000000000000000000000000000000815260040161056e90611ebf565b60405180910390fd5b60001515600760003373ffffffffffffffffffffffffffffffffffffffff1673ffffffffffffffffffffffffffffffffffffffff168152602001908152602001600020600084815260200190815260200160002060009054906101000a900460ff1615151461061b576040517f08c379a000000000000000000000000000000000000000000000000000000000815260040161061290611f2b565b60405180910390fd5b6001600760003373ffffffffffffffffffffffffffffffffffffffff1673ffffffffffffffffffffffffffffffffffffffff168152602001908152602001600020600084815260200190815260200160002060006101000a81548160ff0219169083151502179055506004600083815260200190815260200160002060030160008154809291906106ab90611f7a565b91905055503373ffffffffffffffffffffffffffffffffffffffff16827f924813d717e221b5f46dcd8a56da1679e4612584ab3237d55e5faabf6f6a307960405160405180910390a36001546004600084815260200190815260200160002060030154106108d65760016004600084815260200190815260200160002060040160006101000a81548160ff02191690831515021790555060006004600084815260200190815260200160002060010160009054906101000a900473ffffffffffffffffffffffffffffffffffffffff1673ffffffffffffffffffffffffffffffffffffffff16600460008581526020019081526020016000206002016040516107b49190612065565b6000604051808303816000865af19150503d80600081146107f1576040519150601f19603f3d011682016040523d82523d6000602084013e6107f6565b606091505b505090508061083a576040517f08c379a0000000000000000000000000000000000000000000000000000000008152600401610831906120c8565b60405180910390fd5b6004600084815260200190815260200160002060010160009054906101000a900473ffffffffffffffffffffffffffffffffffffffff1673ffffffffffffffffffffffffffffffffffffffff16837f518df7417ea3ad72d40e6f8bd20a6344a813b8b5e5cc0638f8cbd1487107c339600460008781526020019081526020016000206002016040516108cc919061217d565b60405180910390a3505b5050565b60606003805480602002602001604051908101604052809291908181526020016000905b828210156109bf57838290600052602060002090600502016040518060a001604052908160008201548152602001600182015481526020016002820160009054906101000a900473ffffffffffffffffffffffffffffffffffffffff1673ffffffffffffffffffffffffffffffffffffffff1673ffffffffffffffffffffffffffffffffffffffff168152602001600382015481526020016004820160009054906101000a900460ff161515151581525050815260200190600101906108fe565b50505050905090565b6109d06115ec565b600460008381526020019081526020016000206040518060a0016040529081600082015481526020016001820160009054906101000a900473ffffffffffffffffffffffffffffffffffffffff1673ffffffffffffffffffffffffffffffffffffffff1673ffffffffffffffffffffffffffffffffffffffff168152602001600282018054610a5e90611d81565b80601f0160208091040260200160405190810160405280929190818152602001828054610a8a90611d81565b8015610ad75780601f10610aac57610100808354040283529160200191610ad7565b820191906000526020600020905b815481529060010190602001808311610aba57829003601f168201915b50505050508152602001600382015481526020016004820160009054906101000a900460ff1615151515815250509050919050565b60076020528160005260406000206020528060005260406000206000915091509054906101000a900460ff1681565b6000805b600080549050811015610bcf573373ffffffffffffffffffffffffffffffffffffffff1660008281548110610b7757610b76611db2565b5b9060005260206000200160009054906101000a900473ffffffffffffffffffffffffffffffffffffffff1673ffffffffffffffffffffffffffffffffffffffff1603610bc257600191505b8080600101915050610b3f565b506001151581151514610c17576040517f08c379a0000000000000000000000000000000000000000000000000000000008152600401610c0e90611e2d565b60405180910390fd5b6040518060a0016040528060055481526020018573ffffffffffffffffffffffffffffffffffffffff16815260200184848080601f016020809104026020016040519081016040528093929190818152602001838380828437600081840152601f19601f82011690508083019250505050505050815260200160018152602001600015158152506004600060055481526020019081526020016000206000820151816000015560208201518160010160006101000a81548173ffffffffffffffffffffffffffffffffffffffff021916908373ffffffffffffffffffffffffffffffffffffffff1602179055506040820151816002019081610d199190612365565b506060820151816003015560808201518160040160006101000a81548160ff0219169083151502179055509050506001600760003373ffffffffffffffffffffffffffffffffffffffff1673ffffffffffffffffffffffffffffffffffffffff1681526020019081526020016000206000600554815260200190815260200160002060006101000a81548160ff0219169083151502179055508373ffffffffffffffffffffffffffffffffffffffff166005547f6d1362c103e71c81f65f9b70be8ec9e1befd6b06cd92a7a3a38d1a4eebf971d58585604051610dfd929190612473565b60405180910390a360056000815480929190610e1890611f7a565b919050555050505050565b6000805b600080549050811015610eb7573373ffffffffffffffffffffffffffffffffffffffff1660008281548110610e5f57610e5e611db2565b5b9060005260206000200160009054906101000a900473ffffffffffffffffffffffffffffffffffffffff1673ffffffffffffffffffffffffffffffffffffffff1603610eaa57600191505b8080600101915050610e27565b506001151581151514610eff576040517f08c379a0000000000000000000000000000000000000000000000000000000008152600401610ef690611e2d565b60405180910390fd5b60036040518060a0016040528060038054905081526020018581526020018473ffffffffffffffffffffffffffffffffffffffff16815260200160008152602001600015158152509080600181540180825580915050600190039060005260206000209060050201600090919091909150600082015181600001556020820151816001015560408201518160020160006101000a81548173ffffffffffffffffffffffffffffffffffffffff021916908373ffffffffffffffffffffffffffffffffffffffff1602179055506060820151816003015560808201518160040160006101000a81548160ff02191690831515021790555050508173ffffffffffffffffffffffffffffffffffffffff167f8c3e2dd5760a36c7f3aeac2c4b485dcbaa88c66ca548ff6fba13c33fb4c974a360016003805490506110419190612497565b856040516110509291906124cb565b60405180910390a2505050565b606060008054806020026020016040519081016040528092919081815260200182805480156110e157602002820191906000526020600020905b8160009054906101000a900473ffffffffffffffffffffffffffffffffffffffff1673ffffffffffffffffffffffffffffffffffffffff1681526020019060010190808311611097575b5050505050905090565b600381815481106110fb57600080fd5b90600052602060002090600502016000915090508060000154908060010154908060020160009054906101000a900473ffffffffffffffffffffffffffffffffffffffff16908060030154908060040160009054906101000a900460ff16905085565b60055481565b6000805b6000805490508110156111f8573373ffffffffffffffffffffffffffffffffffffffff16600082815481106111a05761119f611db2565b5b9060005260206000200160009054906101000a900473ffffffffffffffffffffffffffffffffffffffff1673ffffffffffffffffffffffffffffffffffffffff16036111eb57600191505b8080600101915050611168565b506001151581151514611240576040517f08c379a000000000000000000000000000000000000000000000000000000000815260040161123790611e2d565b60405180910390fd5b600015156003838154811061125857611257611db2565b5b906000526020600020906005020160040160009054906101000a900460ff161515146112b9576040517f08c379a00000000000000000000000000000000000000000000000000000000081526004016112b090612540565b60405180910390fd5b60001515600660003373ffffffffffffffffffffffffffffffffffffffff1673ffffffffffffffffffffffffffffffffffffffff168152602001908152602001600020600084815260200190815260200160002060009054906101000a900460ff1615151461135d576040517f08c379a0000000000000000000000000000000000000000000000000000000008152600401611354906125ac565b60405180910390fd5b6001600660003373ffffffffffffffffffffffffffffffffffffffff1673ffffffffffffffffffffffffffffffffffffffff168152602001908152602001600020600084815260200190815260200160002060006101000a81548160ff021916908315150217905550600382815481106113da576113d9611db2565b5b906000526020600020906005020160030160008154809291906113fc90611f7a565b91905055506001546003838154811061141857611417611db2565b5b9060005260206000209060050201600301541061157a5760016003838154811061144557611444611db2565b5b906000526020600020906005020160040160006101000a81548160ff02191690831515021790555060006003838154811061148357611482611db2565b5b906000526020600020906005020160020160009054906101000a900473ffffffffffffffffffffffffffffffffffffffff1690506000600384815481106114cd576114cc611db2565b5b90600052602060002090600502016001015490508173ffffffffffffffffffffffffffffffffffffffff166108fc829081150290604051600060405180830381858888f19350505050158015611527573d6000803e3d6000fd5b508173ffffffffffffffffffffffffffffffffffffffff16847fe39d1fcc096df745bb4289888816388d5c499b5679d9f807308c275498d1cdb88360405161156f91906116fe565b60405180910390a350505b5050565b6000818154811061158e57600080fd5b906000526020600020016000915054906101000a900473ffffffffffffffffffffffffffffffffffffffff1681565b60066020528160005260406000206020528060005260406000206000915091509054906101000a900460ff1681565b6040518060a0016040528060008152602001600073ffffffffffffffffffffffffffffffffffffffff16815260200160608152602001600081526020016000151581525090565b600081519050919050565b600082825260208201905092915050565b60005b8381101561166d578082015181840152602081019050611652565b60008484015250505050565b6000601f19601f8301169050919050565b600061169582611633565b61169f818561163e565b93506116af81856020860161164f565b6116b881611679565b840191505092915050565b600060208201905081810360008301526116dd818461168a565b905092915050565b6000819050919050565b6116f8816116e5565b82525050565b600060208201905061171360008301846116ef565b92915050565b600080fd5b600080fd5b61172c816116e5565b811461173757600080fd5b50565b60008135905061174981611723565b92915050565b60006020828403121561176557611764611719565b5b60006117738482850161173a565b91505092915050565b600081519050919050565b600082825260208201905092915050565b6000819050602082019050919050565b6117b1816116e5565b82525050565b600073ffffffffffffffffffffffffffffffffffffffff82169050919050565b60006117e2826117b7565b9050919050565b6117f2816117d7565b82525050565b60008115159050919050565b61180d816117f8565b82525050565b60a08201600082015161182960008501826117a8565b50602082015161183c60208501826117a8565b50604082015161184f60408501826117e9565b50606082015161186260608501826117a8565b5060808201516118756080850182611804565b50505050565b60006118878383611813565b60a08301905092915050565b6000602082019050919050565b60006118ab8261177c565b6118b58185611787565b93506118c083611798565b8060005b838110156118f15781516118d8888261187b565b97506118e383611893565b9250506001810190506118c4565b5085935050505092915050565b6000602082019050818103600083015261191881846118a0565b905092915050565b600061192b826117b7565b9050919050565b61193b81611920565b82525050565b600081519050919050565b600082825260208201905092915050565b600061196882611941565b611972818561194c565b935061198281856020860161164f565b61198b81611679565b840191505092915050565b600060a0830160008301516119ae60008601826117a8565b5060208301516119c16020860182611932565b50604083015184820360408601526119d9828261195d565b91505060608301516119ee60608601826117a8565b506080830151611a016080860182611804565b508091505092915050565b60006020820190508181036000830152611a268184611996565b905092915050565b611a3781611920565b8114611a4257600080fd5b50565b600081359050611a5481611a2e565b92915050565b60008060408385031215611a7157611a70611719565b5b6000611a7f85828601611a45565b9250506020611a908582860161173a565b9150509250929050565b611aa3816117f8565b82525050565b6000602082019050611abe6000830184611a9a565b92915050565b600080fd5b600080fd5b600080fd5b60008083601f840112611ae957611ae8611ac4565b5b8235905067ffffffffffffffff811115611b0657611b05611ac9565b5b602083019150836001820283011115611b2257611b21611ace565b5b9250929050565b600080600060408486031215611b4257611b41611719565b5b6000611b5086828701611a45565b935050602084013567ffffffffffffffff811115611b7157611b7061171e565b5b611b7d86828701611ad3565b92509250509250925092565b611b92816117d7565b8114611b9d57600080fd5b50565b600081359050611baf81611b89565b92915050565b60008060408385031215611bcc57611bcb611719565b5b6000611bda8582860161173a565b9250506020611beb85828601611ba0565b9150509250929050565b600081519050919050565b600082825260208201905092915050565b6000819050602082019050919050565b6000611c2d8383611932565b60208301905092915050565b6000602082019050919050565b6000611c5182611bf5565b611c5b8185611c00565b9350611c6683611c11565b8060005b83811015611c97578151611c7e8882611c21565b9750611c8983611c39565b925050600181019050611c6a565b5085935050505092915050565b60006020820190508181036000830152611cbe8184611c46565b905092915050565b611ccf816117d7565b82525050565b600060a082019050611cea60008301886116ef565b611cf760208301876116ef565b611d046040830186611cc6565b611d1160608301856116ef565b611d1e6080830184611a9a565b9695505050505050565b611d3181611920565b82525050565b6000602082019050611d4c6000830184611d28565b92915050565b7f4e487b7100000000000000000000000000000000000000000000000000000000600052602260045260246000fd5b60006002820490506001821680611d9957607f821691505b602082108103611dac57611dab611d52565b5b50919050565b7f4e487b7100000000000000000000000000000000000000000000000000000000600052603260045260246000fd5b7f6f6e6c7920617070726f76657220616c6c6f7765640000000000000000000000600082015250565b6000611e1760158361163e565b9150611e2282611de1565b602082019050919050565b60006020820190508181036000830152611e4681611e0a565b9050919050565b7f5472616e73616374696f6e2068617320616c7265616479206265656e2065786560008201527f6375746564000000000000000000000000000000000000000000000000000000602082015250565b6000611ea960258361163e565b9150611eb482611e4d565b604082019050919050565b60006020820190508181036000830152611ed881611e9c565b9050919050565b7f43616e6e6f7420617070726f7665207472616e73616374696f6e207477696365600082015250565b6000611f1560208361163e565b9150611f2082611edf565b602082019050919050565b60006020820190508181036000830152611f4481611f08565b9050919050565b7f4e487b7100000000000000000000000000000000000000000000000000000000600052601160045260246000fd5b6000611f85826116e5565b91507fffffffffffffffffffffffffffffffffffffffffffffffffffffffffffffffff8203611fb757611fb6611f4b565b5b600182019050919050565b600081905092915050565b60008190508160005260206000209050919050565b60008154611fef81611d81565b611ff98186611fc2565b9450600182166000811461201457600181146120295761205c565b60ff198316865281151582028601935061205c565b61203285611fcd565b60005b8381101561205457815481890152600182019150602081019050612035565b838801955050505b50505092915050565b60006120718284611fe2565b915081905092915050565b7f5472616e73616374696f6e20657865637574696f6e206661696c656400000000600082015250565b60006120b2601c8361163e565b91506120bd8261207c565b602082019050919050565b600060208201905081810360008301526120e1816120a5565b9050919050565b600082825260208201905092915050565b6000815461210681611d81565b61211081866120e8565b9450600182166000811461212b576001811461214157612174565b60ff198316865281151560200286019350612174565b61214a85611fcd565b60005b8381101561216c5781548189015260018201915060208101905061214d565b808801955050505b50505092915050565b6000602082019050818103600083015261219781846120f9565b905092915050565b7f4e487b7100000000000000000000000000000000000000000000000000000000600052604160045260246000fd5b60006020601f8301049050919050565b600082821b905092915050565b60006008830261221b7fffffffffffffffffffffffffffffffffffffffffffffffffffffffffffffffff826121de565b61222586836121de565b95508019841693508086168417925050509392505050565b6000819050919050565b600061226261225d612258846116e5565b61223d565b6116e5565b9050919050565b6000819050919050565b61227c83612247565b61229061228882612269565b8484546121eb565b825550505050565b600090565b6122a5612298565b6122b0818484612273565b505050565b5b818110156122d4576122c960008261229d565b6001810190506122b6565b5050565b601f821115612319576122ea81611fcd565b6122f3846121ce565b81016020851015612302578190505b61231661230e856121ce565b8301826122b5565b50505b505050565b600082821c905092915050565b600061233c6000198460080261231e565b1980831691505092915050565b6000612355838361232b565b9150826002028217905092915050565b61236e82611941565b67ffffffffffffffff8111156123875761238661219f565b5b6123918254611d81565b61239c8282856122d8565b600060209050601f8311600181146123cf57600084156123bd578287015190505b6123c78582612349565b86555061242f565b601f1984166123dd86611fcd565b60005b82811015612405578489015182556001820191506020850194506020810190506123e0565b86831015612422578489015161241e601f89168261232b565b8355505b6001600288020188555050505b505050505050565b82818337600083830152505050565b600061245283856120e8565b935061245f838584612437565b61246883611679565b840190509392505050565b6000602082019050818103600083015261248e818486612446565b90509392505050565b60006124a2826116e5565b91506124ad836116e5565b92508282039050818111156124c5576124c4611f4b565b5b92915050565b60006040820190506124e060008301856116ef565b6124ed60208301846116ef565b9392505050565b7f5472616e736665722068617320616c7265616479206265656e2073656e740000600082015250565b600061252a601e8361163e565b9150612535826124f4565b602082019050919050565b600060208201905081810360008301526125598161251d565b9050919050565b7f63616e6e6f7420617070726f7665207472616e73666572207477696365000000600082015250565b6000612596601d8361163e565b91506125a182612560565b602082019050919050565b600060208201905081810360008301526125c581612589565b905091905056fea2646970667358221220fc59cbf82cd1f7010e5c9c6057e2bda536405bae458df67b915603b6cda5e47564736f6c63430008180033",
  "linkReferences": {},
  "deployedLinkReferences": {}
}