{
  "_format": "hh-sol-artifact-1",
  "contractName": "MultiSigWallet",
  "sourceName": "contracts/MultiSigWallet.sol",
  "abi": [
    {
      "inputs": [
        {
          "internalType": "address[]",
          "name": "_approvers",
          "type": "address[]"
        },
        {
          "internalType": "uint256",
          "name": "_quorum",
          "type": "uint256"
        },
        {
          "internalType": "string",
          "name": "_name",
          "type": "string"
        }
      ],
      "stateMutability": "nonpayable",
      "type": "constructor"
    },
    {
      "anonymous": false,
      "inputs": [
        {
          "indexed": true,
          "internalType": "uint256",
          "name": "id",
          "type": "uint256"
        },
        {
          "indexed": true,
          "internalType": "address",
          "name": "approver",
          "type": "address"
        }
      ],
      "name": "TransactionApproved",
      "type": "event"
    },
    {
      "anonymous": false,
      "inputs": [
        {
          "indexed": true,
          "internalType": "uint256",
          "name": "id",
          "type": "uint256"
        },
        {
          "indexed": true,
          "internalType": "address",
          "name": "to",
          "type": "address"
        },
        {
          "indexed": false,
          "internalType": "bytes",
          "name": "data",
          "type": "bytes"
        }
      ],
      "name": "TransactionCreated",
      "type": "event"
    },
    {
      "anonymous": false,
      "inputs": [
        {
          "indexed": true,
          "internalType": "uint256",
          "name": "id",
          "type": "uint256"
        },
        {
          "indexed": true,
          "internalType": "address",
          "name": "to",
          "type": "address"
        },
        {
          "indexed": false,
          "internalType": "bytes",
          "name": "data",
          "type": "bytes"
        }
      ],
      "name": "TransactionExecuted",
      "type": "event"
    },
    {
      "anonymous": false,
      "inputs": [
        {
          "indexed": true,
          "internalType": "uint256",
          "name": "id",
          "type": "uint256"
        },
        {
          "indexed": true,
          "internalType": "address",
          "name": "approver",
          "type": "address"
        }
      ],
      "name": "TransferApproved",
      "type": "event"
    },
    {
      "anonymous": false,
      "inputs": [
        {
          "indexed": false,
          "internalType": "uint256",
          "name": "id",
          "type": "uint256"
        },
        {
          "indexed": false,
          "internalType": "uint256",
          "name": "amount",
          "type": "uint256"
        },
        {
          "indexed": true,
          "internalType": "address",
          "name": "to",
          "type": "address"
        }
      ],
      "name": "TransferCreated",
      "type": "event"
    },
    {
      "anonymous": false,
      "inputs": [
        {
          "indexed": true,
          "internalType": "uint256",
          "name": "id",
          "type": "uint256"
        },
        {
          "indexed": false,
          "internalType": "uint256",
          "name": "amount",
          "type": "uint256"
        },
        {
          "indexed": true,
          "internalType": "address",
          "name": "to",
          "type": "address"
        }
      ],
      "name": "TransferSent",
      "type": "event"
    },
    {
      "inputs": [
        {
          "internalType": "address",
          "name": "",
          "type": "address"
        },
        {
          "internalType": "uint256",
          "name": "",
          "type": "uint256"
        }
      ],
      "name": "approvals",
      "outputs": [
        {
          "internalType": "bool",
          "name": "",
          "type": "bool"
        }
      ],
      "stateMutability": "view",
      "type": "function"
    },
    {
      "inputs": [
        {
          "internalType": "uint256",
          "name": "id",
          "type": "uint256"
        }
      ],
      "name": "approveTransaction",
      "outputs": [],
      "stateMutability": "nonpayable",
      "type": "function"
    },
    {
      "inputs": [
        {
          "internalType": "uint256",
          "name": "id",
          "type": "uint256"
        }
      ],
      "name": "approveTransfer",
      "outputs": [],
      "stateMutability": "nonpayable",
      "type": "function"
    },
    {
      "inputs": [
        {
          "internalType": "uint256",
          "name": "",
          "type": "uint256"
        }
      ],
      "name": "approvers",
      "outputs": [
        {
          "internalType": "address",
          "name": "",
          "type": "address"
        }
      ],
      "stateMutability": "view",
      "type": "function"
    },
    {
      "inputs": [
        {
          "internalType": "address",
          "name": "to",
          "type": "address"
        },
        {
          "internalType": "bytes",
          "name": "data",
          "type": "bytes"
        }
      ],
      "name": "createTransaction",
      "outputs": [],
      "stateMutability": "nonpayable",
      "type": "function"
    },
    {
      "inputs": [
        {
          "internalType": "uint256",
          "name": "amount",
          "type": "uint256"
        },
        {
          "internalType": "address payable",
          "name": "to",
          "type": "address"
        }
      ],
      "name": "createTransfer",
      "outputs": [],
      "stateMutability": "nonpayable",
      "type": "function"
    },
    {
      "inputs": [],
      "name": "getApprovers",
      "outputs": [
        {
          "internalType": "address[]",
          "name": "",
          "type": "address[]"
        }
      ],
      "stateMutability": "view",
      "type": "function"
    },
    {
      "inputs": [
        {
          "internalType": "uint256",
          "name": "id",
          "type": "uint256"
        }
      ],
      "name": "getTransaction",
      "outputs": [
        {
          "components": [
            {
              "internalType": "uint256",
              "name": "id",
              "type": "uint256"
            },
            {
              "internalType": "address",
              "name": "to",
              "type": "address"
            },
            {
              "internalType": "bytes",
              "name": "data",
              "type": "bytes"
            },
            {
              "internalType": "uint256",
              "name": "approvals",
              "type": "uint256"
            },
            {
              "internalType": "bool",
              "name": "executed",
              "type": "bool"
            }
          ],
          "internalType": "struct MultiSigWallet.Transaction",
          "name": "",
          "type": "tuple"
        }
      ],
      "stateMutability": "view",
      "type": "function"
    },
    {
      "inputs": [],
      "name": "getTransfers",
      "outputs": [
        {
          "components": [
            {
              "internalType": "uint256",
              "name": "id",
              "type": "uint256"
            },
            {
              "internalType": "uint256",
              "name": "amount",
              "type": "uint256"
            },
            {
              "internalType": "address payable",
              "name": "to",
              "type": "address"
            },
            {
              "internalType": "uint256",
              "name": "approvals",
              "type": "uint256"
            },
            {
              "internalType": "bool",
              "name": "sent",
              "type": "bool"
            }
          ],
          "internalType": "struct MultiSigWallet.Transfer[]",
          "name": "",
          "type": "tuple[]"
        }
      ],
      "stateMutability": "view",
      "type": "function"
    },
    {
      "inputs": [],
      "name": "name",
      "outputs": [
        {
          "internalType": "string",
          "name": "",
          "type": "string"
        }
      ],
      "stateMutability": "view",
      "type": "function"
    },
    {
      "inputs": [],
      "name": "quorum",
      "outputs": [
        {
          "internalType": "uint256",
          "name": "",
          "type": "uint256"
        }
      ],
      "stateMutability": "view",
      "type": "function"
    },
    {
      "inputs": [
        {
          "internalType": "address",
          "name": "",
          "type": "address"
        },
        {
          "internalType": "uint256",
          "name": "",
          "type": "uint256"
        }
      ],
      "name": "transactionapprovals",
      "outputs": [
        {
          "internalType": "bool",
          "name": "",
          "type": "bool"
        }
      ],
      "stateMutability": "view",
      "type": "function"
    },
    {
      "inputs": [
        {
          "internalType": "uint256",
          "name": "",
          "type": "uint256"
        }
      ],
      "name": "transfers",
      "outputs": [
        {
          "internalType": "uint256",
          "name": "id",
          "type": "uint256"
        },
        {
          "internalType": "uint256",
          "name": "amount",
          "type": "uint256"
        },
        {
          "internalType": "address payable",
          "name": "to",
          "type": "address"
        },
        {
          "internalType": "uint256",
          "name": "approvals",
          "type": "uint256"
        },
        {
          "internalType": "bool",
          "name": "sent",
          "type": "bool"
        }
      ],
      "stateMutability": "view",
      "type": "function"
    },
    {
      "stateMutability": "payable",
      "type": "receive"
    }
  ],
  "bytecode": "0x6080604052600160055560016006553480156200001b57600080fd5b5060405162002dc038038062002dc0833981810160405281019062000041919062000438565b8260009080519060200190620000599291906200007c565b5081600181905550806002908162000072919062000713565b50505050620007fa565b828054828255906000526020600020908101928215620000f8579160200282015b82811115620000f75782518260006101000a81548173ffffffffffffffffffffffffffffffffffffffff021916908373ffffffffffffffffffffffffffffffffffffffff160217905550916020019190600101906200009d565b5b5090506200010791906200010b565b5090565b5b80821115620001265760008160009055506001016200010c565b5090565b6000604051905090565b600080fd5b600080fd5b600080fd5b6000601f19601f8301169050919050565b7f4e487b7100000000000000000000000000000000000000000000000000000000600052604160045260246000fd5b6200018e8262000143565b810181811067ffffffffffffffff82111715620001b057620001af62000154565b5b80604052505050565b6000620001c56200012a565b9050620001d3828262000183565b919050565b600067ffffffffffffffff821115620001f657620001f562000154565b5b602082029050602081019050919050565b600080fd5b600073ffffffffffffffffffffffffffffffffffffffff82169050919050565b600062000239826200020c565b9050919050565b6200024b816200022c565b81146200025757600080fd5b50565b6000815190506200026b8162000240565b92915050565b6000620002886200028284620001d8565b620001b9565b90508083825260208201905060208402830185811115620002ae57620002ad62000207565b5b835b81811015620002db5780620002c688826200025a565b845260208401935050602081019050620002b0565b5050509392505050565b600082601f830112620002fd57620002fc6200013e565b5b81516200030f84826020860162000271565b91505092915050565b6000819050919050565b6200032d8162000318565b81146200033957600080fd5b50565b6000815190506200034d8162000322565b92915050565b600080fd5b600067ffffffffffffffff82111562000376576200037562000154565b5b620003818262000143565b9050602081019050919050565b60005b83811015620003ae57808201518184015260208101905062000391565b60008484015250505050565b6000620003d1620003cb8462000358565b620001b9565b905082815260208101848484011115620003f057620003ef62000353565b5b620003fd8482856200038e565b509392505050565b600082601f8301126200041d576200041c6200013e565b5b81516200042f848260208601620003ba565b91505092915050565b60008060006060848603121562000454576200045362000134565b5b600084015167ffffffffffffffff81111562000475576200047462000139565b5b6200048386828701620002e5565b935050602062000496868287016200033c565b925050604084015167ffffffffffffffff811115620004ba57620004b962000139565b5b620004c88682870162000405565b9150509250925092565b600081519050919050565b7f4e487b7100000000000000000000000000000000000000000000000000000000600052602260045260246000fd5b600060028204905060018216806200052557607f821691505b6020821081036200053b576200053a620004dd565b5b50919050565b60008190508160005260206000209050919050565b60006020601f8301049050919050565b600082821b905092915050565b600060088302620005a57fffffffffffffffffffffffffffffffffffffffffffffffffffffffffffffffff8262000566565b620005b1868362000566565b95508019841693508086168417925050509392505050565b6000819050919050565b6000620005f4620005ee620005e88462000318565b620005c9565b62000318565b9050919050565b6000819050919050565b6200061083620005d3565b620006286200061f82620005fb565b84845462000573565b825550505050565b600090565b6200063f62000630565b6200064c81848462000605565b505050565b5b8181101562000674576200066860008262000635565b60018101905062000652565b5050565b601f821115620006c3576200068d8162000541565b620006988462000556565b81016020851015620006a8578190505b620006c0620006b78562000556565b83018262000651565b50505b505050565b600082821c905092915050565b6000620006e860001984600802620006c8565b1980831691505092915050565b6000620007038383620006d5565b9150826002028217905092915050565b6200071e82620004d2565b67ffffffffffffffff8111156200073a576200073962000154565b5b6200074682546200050c565b6200075382828562000678565b600060209050601f8311600181146200078b576000841562000776578287015190505b620007828582620006f5565b865550620007f2565b601f1984166200079b8662000541565b60005b82811015620007c5578489015182556001820191506020850194506020810190506200079e565b86831015620007e55784890151620007e1601f891682620006d5565b8355505b6001600288020188555050505b505050505050565b6125b6806200080a6000396000f3fe6080604052600436106100c65760003560e01c806342dd3c061161007f5780639377d711116100595780639377d71114610273578063cacca4a0146102b4578063d3650fb8146102dd578063ffabc6731461031a576100cd565b806342dd3c06146101f65780634c12fa471461021f5780636cb3e8ef14610248576100cd565b806306fdde03146100d25780631703a018146100fd578063242232d1146101285780632f65142c1461015157806333ea3dc81461017c57806336434f63146101b9576100cd565b366100cd57005b600080fd5b3480156100de57600080fd5b506100e7610357565b6040516100f49190611677565b60405180910390f35b34801561010957600080fd5b506101126103e5565b60405161011f91906116b2565b60405180910390f35b34801561013457600080fd5b5061014f600480360381019061014a9190611703565b6103eb565b005b34801561015d57600080fd5b50610166610894565b60405161017391906118b2565b60405180910390f35b34801561018857600080fd5b506101a3600480360381019061019e9190611703565b610982565b6040516101b091906119c0565b60405180910390f35b3480156101c557600080fd5b506101e060048036038101906101db9190611a0e565b610ac6565b6040516101ed9190611a5d565b60405180910390f35b34801561020257600080fd5b5061021d60048036038101906102189190611add565b610af5565b005b34801561022b57600080fd5b5061024660048036038101906102419190611b69565b610ddd565b005b34801561025457600080fd5b5061025d611017565b60405161026a9190611c58565b60405180910390f35b34801561027f57600080fd5b5061029a60048036038101906102959190611703565b6110a5565b6040516102ab959493929190611c89565b60405180910390f35b3480156102c057600080fd5b506102db60048036038101906102d69190611703565b611118565b005b3480156102e957600080fd5b5061030460048036038101906102ff9190611703565b611532565b6040516103119190611ceb565b60405180910390f35b34801561032657600080fd5b50610341600480360381019061033c9190611a0e565b611571565b60405161034e9190611a5d565b60405180910390f35b6002805461036490611d35565b80601f016020809104026020016040519081016040528092919081815260200182805461039090611d35565b80156103dd5780601f106103b2576101008083540402835291602001916103dd565b820191906000526020600020905b8154815290600101906020018083116103c057829003601f168201915b505050505081565b60015481565b6000805b60008054905081101561047f573373ffffffffffffffffffffffffffffffffffffffff166000828154811061042757610426611d66565b5b9060005260206000200160009054906101000a900473ffffffffffffffffffffffffffffffffffffffff1673ffffffffffffffffffffffffffffffffffffffff160361047257600191505b80806001019150506103ef565b5060011515811515146104c7576040517f08c379a00000000000000000000000000000000000000000000000000000000081526004016104be90611de1565b60405180910390fd5b600015156004600084815260200190815260200160002060040160009054906101000a900460ff16151514610531576040517f08c379a000000000000000000000000000000000000000000000000000000000815260040161052890611e73565b60405180910390fd5b60001515600860003373ffffffffffffffffffffffffffffffffffffffff1673ffffffffffffffffffffffffffffffffffffffff168152602001908152602001600020600084815260200190815260200160002060009054906101000a900460ff161515146105d5576040517f08c379a00000000000000000000000000000000000000000000000000000000081526004016105cc90611edf565b60405180910390fd5b6001600860003373ffffffffffffffffffffffffffffffffffffffff1673ffffffffffffffffffffffffffffffffffffffff168152602001908152602001600020600084815260200190815260200160002060006101000a81548160ff02191690831515021790555060046000838152602001908152602001600020600301600081548092919061066590611f2e565b91905055503373ffffffffffffffffffffffffffffffffffffffff16827f924813d717e221b5f46dcd8a56da1679e4612584ab3237d55e5faabf6f6a307960405160405180910390a36001546004600084815260200190815260200160002060030154106108905760016004600084815260200190815260200160002060040160006101000a81548160ff02191690831515021790555060006004600084815260200190815260200160002060010160009054906101000a900473ffffffffffffffffffffffffffffffffffffffff1673ffffffffffffffffffffffffffffffffffffffff166004600085815260200190815260200160002060020160405161076e9190612019565b6000604051808303816000865af19150503d80600081146107ab576040519150601f19603f3d011682016040523d82523d6000602084013e6107b0565b606091505b50509050806107f4576040517f08c379a00000000000000000000000000000000000000000000000000000000081526004016107eb9061207c565b60405180910390fd5b6004600084815260200190815260200160002060010160009054906101000a900473ffffffffffffffffffffffffffffffffffffffff1673ffffffffffffffffffffffffffffffffffffffff16837f518df7417ea3ad72d40e6f8bd20a6344a813b8b5e5cc0638f8cbd1487107c339600460008781526020019081526020016000206002016040516108869190612131565b60405180910390a3505b5050565b60606003805480602002602001604051908101604052809291908181526020016000905b8282101561097957838290600052602060002090600502016040518060a001604052908160008201548152602001600182015481526020016002820160009054906101000a900473ffffffffffffffffffffffffffffffffffffffff1673ffffffffffffffffffffffffffffffffffffffff1673ffffffffffffffffffffffffffffffffffffffff168152602001600382015481526020016004820160009054906101000a900460ff161515151581525050815260200190600101906108b8565b50505050905090565b61098a6115a0565b600460008381526020019081526020016000206040518060a0016040529081600082015481526020016001820160009054906101000a900473ffffffffffffffffffffffffffffffffffffffff1673ffffffffffffffffffffffffffffffffffffffff1673ffffffffffffffffffffffffffffffffffffffff168152602001600282018054610a1890611d35565b80601f0160208091040260200160405190810160405280929190818152602001828054610a4490611d35565b8015610a915780601f10610a6657610100808354040283529160200191610a91565b820191906000526020600020905b815481529060010190602001808311610a7457829003601f168201915b50505050508152602001600382015481526020016004820160009054906101000a900460ff1615151515815250509050919050565b60086020528160005260406000206020528060005260406000206000915091509054906101000a900460ff1681565b6000805b600080549050811015610b89573373ffffffffffffffffffffffffffffffffffffffff1660008281548110610b3157610b30611d66565b5b9060005260206000200160009054906101000a900473ffffffffffffffffffffffffffffffffffffffff1673ffffffffffffffffffffffffffffffffffffffff1603610b7c57600191505b8080600101915050610af9565b506001151581151514610bd1576040517f08c379a0000000000000000000000000000000000000000000000000000000008152600401610bc890611de1565b60405180910390fd5b6040518060a0016040528060055481526020018573ffffffffffffffffffffffffffffffffffffffff16815260200184848080601f016020809104026020016040519081016040528093929190818152602001838380828437600081840152601f19601f82011690508083019250505050505050815260200160018152602001600015158152506004600060055481526020019081526020016000206000820151816000015560208201518160010160006101000a81548173ffffffffffffffffffffffffffffffffffffffff021916908373ffffffffffffffffffffffffffffffffffffffff1602179055506040820151816002019081610cd39190612319565b506060820151816003015560808201518160040160006101000a81548160ff0219169083151502179055509050506001600860003373ffffffffffffffffffffffffffffffffffffffff1673ffffffffffffffffffffffffffffffffffffffff1681526020019081526020016000206000600554815260200190815260200160002060006101000a81548160ff0219169083151502179055508373ffffffffffffffffffffffffffffffffffffffff166005547f6d1362c103e71c81f65f9b70be8ec9e1befd6b06cd92a7a3a38d1a4eebf971d58585604051610db7929190612427565b60405180910390a360056000815480929190610dd290611f2e565b919050555050505050565b6000805b600080549050811015610e71573373ffffffffffffffffffffffffffffffffffffffff1660008281548110610e1957610e18611d66565b5b9060005260206000200160009054906101000a900473ffffffffffffffffffffffffffffffffffffffff1673ffffffffffffffffffffffffffffffffffffffff1603610e6457600191505b8080600101915050610de1565b506001151581151514610eb9576040517f08c379a0000000000000000000000000000000000000000000000000000000008152600401610eb090611de1565b60405180910390fd5b60036040518060a0016040528060038054905081526020018581526020018473ffffffffffffffffffffffffffffffffffffffff16815260200160008152602001600015158152509080600181540180825580915050600190039060005260206000209060050201600090919091909150600082015181600001556020820151816001015560408201518160020160006101000a81548173ffffffffffffffffffffffffffffffffffffffff021916908373ffffffffffffffffffffffffffffffffffffffff1602179055506060820151816003015560808201518160040160006101000a81548160ff02191690831515021790555050508173ffffffffffffffffffffffffffffffffffffffff167f8c3e2dd5760a36c7f3aeac2c4b485dcbaa88c66ca548ff6fba13c33fb4c974a36001600380549050610ffb919061244b565b8560405161100a92919061247f565b60405180910390a2505050565b6060600080548060200260200160405190810160405280929190818152602001828054801561109b57602002820191906000526020600020905b8160009054906101000a900473ffffffffffffffffffffffffffffffffffffffff1673ffffffffffffffffffffffffffffffffffffffff1681526020019060010190808311611051575b5050505050905090565b600381815481106110b557600080fd5b90600052602060002090600502016000915090508060000154908060010154908060020160009054906101000a900473ffffffffffffffffffffffffffffffffffffffff16908060030154908060040160009054906101000a900460ff16905085565b6000805b6000805490508110156111ac573373ffffffffffffffffffffffffffffffffffffffff166000828154811061115457611153611d66565b5b9060005260206000200160009054906101000a900473ffffffffffffffffffffffffffffffffffffffff1673ffffffffffffffffffffffffffffffffffffffff160361119f57600191505b808060010191505061111c565b5060011515811515146111f4576040517f08c379a00000000000000000000000000000000000000000000000000000000081526004016111eb90611de1565b60405180910390fd5b600015156003838154811061120c5761120b611d66565b5b906000526020600020906005020160040160009054906101000a900460ff1615151461126d576040517f08c379a0000000000000000000000000000000000000000000000000000000008152600401611264906124f4565b60405180910390fd5b60001515600760003373ffffffffffffffffffffffffffffffffffffffff1673ffffffffffffffffffffffffffffffffffffffff168152602001908152602001600020600084815260200190815260200160002060009054906101000a900460ff16151514611311576040517f08c379a000000000000000000000000000000000000000000000000000000000815260040161130890612560565b60405180910390fd5b6001600760003373ffffffffffffffffffffffffffffffffffffffff1673ffffffffffffffffffffffffffffffffffffffff168152602001908152602001600020600084815260200190815260200160002060006101000a81548160ff0219169083151502179055506003828154811061138e5761138d611d66565b5b906000526020600020906005020160030160008154809291906113b090611f2e565b9190505550600154600383815481106113cc576113cb611d66565b5b9060005260206000209060050201600301541061152e576001600383815481106113f9576113f8611d66565b5b906000526020600020906005020160040160006101000a81548160ff02191690831515021790555060006003838154811061143757611436611d66565b5b906000526020600020906005020160020160009054906101000a900473ffffffffffffffffffffffffffffffffffffffff16905060006003848154811061148157611480611d66565b5b90600052602060002090600502016001015490508173ffffffffffffffffffffffffffffffffffffffff166108fc829081150290604051600060405180830381858888f193505050501580156114db573d6000803e3d6000fd5b508173ffffffffffffffffffffffffffffffffffffffff16847fe39d1fcc096df745bb4289888816388d5c499b5679d9f807308c275498d1cdb88360405161152391906116b2565b60405180910390a350505b5050565b6000818154811061154257600080fd5b906000526020600020016000915054906101000a900473ffffffffffffffffffffffffffffffffffffffff1681565b60076020528160005260406000206020528060005260406000206000915091509054906101000a900460ff1681565b6040518060a0016040528060008152602001600073ffffffffffffffffffffffffffffffffffffffff16815260200160608152602001600081526020016000151581525090565b600081519050919050565b600082825260208201905092915050565b60005b83811015611621578082015181840152602081019050611606565b60008484015250505050565b6000601f19601f8301169050919050565b6000611649826115e7565b61165381856115f2565b9350611663818560208601611603565b61166c8161162d565b840191505092915050565b60006020820190508181036000830152611691818461163e565b905092915050565b6000819050919050565b6116ac81611699565b82525050565b60006020820190506116c760008301846116a3565b92915050565b600080fd5b600080fd5b6116e081611699565b81146116eb57600080fd5b50565b6000813590506116fd816116d7565b92915050565b600060208284031215611719576117186116cd565b5b6000611727848285016116ee565b91505092915050565b600081519050919050565b600082825260208201905092915050565b6000819050602082019050919050565b61176581611699565b82525050565b600073ffffffffffffffffffffffffffffffffffffffff82169050919050565b60006117968261176b565b9050919050565b6117a68161178b565b82525050565b60008115159050919050565b6117c1816117ac565b82525050565b60a0820160008201516117dd600085018261175c565b5060208201516117f0602085018261175c565b506040820151611803604085018261179d565b506060820151611816606085018261175c565b50608082015161182960808501826117b8565b50505050565b600061183b83836117c7565b60a08301905092915050565b6000602082019050919050565b600061185f82611730565b611869818561173b565b93506118748361174c565b8060005b838110156118a557815161188c888261182f565b975061189783611847565b925050600181019050611878565b5085935050505092915050565b600060208201905081810360008301526118cc8184611854565b905092915050565b60006118df8261176b565b9050919050565b6118ef816118d4565b82525050565b600081519050919050565b600082825260208201905092915050565b600061191c826118f5565b6119268185611900565b9350611936818560208601611603565b61193f8161162d565b840191505092915050565b600060a083016000830151611962600086018261175c565b50602083015161197560208601826118e6565b506040830151848203604086015261198d8282611911565b91505060608301516119a2606086018261175c565b5060808301516119b560808601826117b8565b508091505092915050565b600060208201905081810360008301526119da818461194a565b905092915050565b6119eb816118d4565b81146119f657600080fd5b50565b600081359050611a08816119e2565b92915050565b60008060408385031215611a2557611a246116cd565b5b6000611a33858286016119f9565b9250506020611a44858286016116ee565b9150509250929050565b611a57816117ac565b82525050565b6000602082019050611a726000830184611a4e565b92915050565b600080fd5b600080fd5b600080fd5b60008083601f840112611a9d57611a9c611a78565b5b8235905067ffffffffffffffff811115611aba57611ab9611a7d565b5b602083019150836001820283011115611ad657611ad5611a82565b5b9250929050565b600080600060408486031215611af657611af56116cd565b5b6000611b04868287016119f9565b935050602084013567ffffffffffffffff811115611b2557611b246116d2565b5b611b3186828701611a87565b92509250509250925092565b611b468161178b565b8114611b5157600080fd5b50565b600081359050611b6381611b3d565b92915050565b60008060408385031215611b8057611b7f6116cd565b5b6000611b8e858286016116ee565b9250506020611b9f85828601611b54565b9150509250929050565b600081519050919050565b600082825260208201905092915050565b6000819050602082019050919050565b6000611be183836118e6565b60208301905092915050565b6000602082019050919050565b6000611c0582611ba9565b611c0f8185611bb4565b9350611c1a83611bc5565b8060005b83811015611c4b578151611c328882611bd5565b9750611c3d83611bed565b925050600181019050611c1e565b5085935050505092915050565b60006020820190508181036000830152611c728184611bfa565b905092915050565b611c838161178b565b82525050565b600060a082019050611c9e60008301886116a3565b611cab60208301876116a3565b611cb86040830186611c7a565b611cc560608301856116a3565b611cd26080830184611a4e565b9695505050505050565b611ce5816118d4565b82525050565b6000602082019050611d006000830184611cdc565b92915050565b7f4e487b7100000000000000000000000000000000000000000000000000000000600052602260045260246000fd5b60006002820490506001821680611d4d57607f821691505b602082108103611d6057611d5f611d06565b5b50919050565b7f4e487b7100000000000000000000000000000000000000000000000000000000600052603260045260246000fd5b7f6f6e6c7920617070726f76657220616c6c6f7765640000000000000000000000600082015250565b6000611dcb6015836115f2565b9150611dd682611d95565b602082019050919050565b60006020820190508181036000830152611dfa81611dbe565b9050919050565b7f5472616e73616374696f6e2068617320616c7265616479206265656e2065786560008201527f6375746564000000000000000000000000000000000000000000000000000000602082015250565b6000611e5d6025836115f2565b9150611e6882611e01565b604082019050919050565b60006020820190508181036000830152611e8c81611e50565b9050919050565b7f43616e6e6f7420617070726f7665207472616e73616374696f6e207477696365600082015250565b6000611ec96020836115f2565b9150611ed482611e93565b602082019050919050565b60006020820190508181036000830152611ef881611ebc565b9050919050565b7f4e487b7100000000000000000000000000000000000000000000000000000000600052601160045260246000fd5b6000611f3982611699565b91507fffffffffffffffffffffffffffffffffffffffffffffffffffffffffffffffff8203611f6b57611f6a611eff565b5b600182019050919050565b600081905092915050565b60008190508160005260206000209050919050565b60008154611fa381611d35565b611fad8186611f76565b94506001821660008114611fc85760018114611fdd57612010565b60ff1983168652811515820286019350612010565b611fe685611f81565b60005b8381101561200857815481890152600182019150602081019050611fe9565b838801955050505b50505092915050565b60006120258284611f96565b915081905092915050565b7f5472616e73616374696f6e20657865637574696f6e206661696c656400000000600082015250565b6000612066601c836115f2565b915061207182612030565b602082019050919050565b6000602082019050818103600083015261209581612059565b9050919050565b600082825260208201905092915050565b600081546120ba81611d35565b6120c4818661209c565b945060018216600081146120df57600181146120f557612128565b60ff198316865281151560200286019350612128565b6120fe85611f81565b60005b8381101561212057815481890152600182019150602081019050612101565b808801955050505b50505092915050565b6000602082019050818103600083015261214b81846120ad565b905092915050565b7f4e487b7100000000000000000000000000000000000000000000000000000000600052604160045260246000fd5b60006020601f8301049050919050565b600082821b905092915050565b6000600883026121cf7fffffffffffffffffffffffffffffffffffffffffffffffffffffffffffffffff82612192565b6121d98683612192565b95508019841693508086168417925050509392505050565b6000819050919050565b600061221661221161220c84611699565b6121f1565b611699565b9050919050565b6000819050919050565b612230836121fb565b61224461223c8261221d565b84845461219f565b825550505050565b600090565b61225961224c565b612264818484612227565b505050565b5b818110156122885761227d600082612251565b60018101905061226a565b5050565b601f8211156122cd5761229e81611f81565b6122a784612182565b810160208510156122b6578190505b6122ca6122c285612182565b830182612269565b50505b505050565b600082821c905092915050565b60006122f0600019846008026122d2565b1980831691505092915050565b600061230983836122df565b9150826002028217905092915050565b612322826118f5565b67ffffffffffffffff81111561233b5761233a612153565b5b6123458254611d35565b61235082828561228c565b600060209050601f8311600181146123835760008415612371578287015190505b61237b85826122fd565b8655506123e3565b601f19841661239186611f81565b60005b828110156123b957848901518255600182019150602085019450602081019050612394565b868310156123d657848901516123d2601f8916826122df565b8355505b6001600288020188555050505b505050505050565b82818337600083830152505050565b6000612406838561209c565b93506124138385846123eb565b61241c8361162d565b840190509392505050565b600060208201905081810360008301526124428184866123fa565b90509392505050565b600061245682611699565b915061246183611699565b925082820390508181111561247957612478611eff565b5b92915050565b600060408201905061249460008301856116a3565b6124a160208301846116a3565b9392505050565b7f5472616e736665722068617320616c7265616479206265656e2073656e740000600082015250565b60006124de601e836115f2565b91506124e9826124a8565b602082019050919050565b6000602082019050818103600083015261250d816124d1565b9050919050565b7f63616e6e6f7420617070726f7665207472616e73666572207477696365000000600082015250565b600061254a601d836115f2565b915061255582612514565b602082019050919050565b600060208201905081810360008301526125798161253d565b905091905056fea26469706673582212207a9e32590fca08b8f62455323b24090e20b142d848a68c690d9b34df5fea932f64736f6c63430008180033",
  "linkReferences": {},
  "deployedLinkReferences": {}
}